{
  "contractName": "PowerfulERC20",
  "abi": [
    {
      "inputs": [
        {
          "internalType": "string",
          "name": "name",
          "type": "string"
        },
        {
          "internalType": "string",
          "name": "symbol",
          "type": "string"
        },
        {
          "internalType": "uint8",
          "name": "decimals",
          "type": "uint8"
        },
        {
          "internalType": "uint256",
          "name": "cap",
          "type": "uint256"
        },
        {
          "internalType": "uint256",
          "name": "initialBalance",
          "type": "uint256"
        },
        {
          "internalType": "address payable",
          "name": "feeReceiver",
          "type": "address"
        }
      ],
      "stateMutability": "payable",
      "type": "constructor"
    },
    {
      "anonymous": false,
      "inputs": [
        {
          "indexed": true,
          "internalType": "address",
          "name": "owner",
          "type": "address"
        },
        {
          "indexed": true,
          "internalType": "address",
          "name": "spender",
          "type": "address"
        },
        {
          "indexed": false,
          "internalType": "uint256",
          "name": "value",
          "type": "uint256"
        }
      ],
      "name": "Approval",
      "type": "event"
    },
    {
      "anonymous": false,
      "inputs": [],
      "name": "MintFinished",
      "type": "event"
    },
    {
      "anonymous": false,
      "inputs": [
        {
          "indexed": true,
          "internalType": "address",
          "name": "previousOwner",
          "type": "address"
        },
        {
          "indexed": true,
          "internalType": "address",
          "name": "newOwner",
          "type": "address"
        }
      ],
      "name": "OwnershipTransferred",
      "type": "event"
    },
    {
      "anonymous": false,
      "inputs": [
        {
          "indexed": true,
          "internalType": "address",
          "name": "from",
          "type": "address"
        },
        {
          "indexed": true,
          "internalType": "address",
          "name": "to",
          "type": "address"
        },
        {
          "indexed": false,
          "internalType": "uint256",
          "name": "value",
          "type": "uint256"
        }
      ],
      "name": "Transfer",
      "type": "event"
    },
    {
      "inputs": [
        {
          "internalType": "address",
          "name": "owner",
          "type": "address"
        },
        {
          "internalType": "address",
          "name": "spender",
          "type": "address"
        }
      ],
      "name": "allowance",
      "outputs": [
        {
          "internalType": "uint256",
          "name": "",
          "type": "uint256"
        }
      ],
      "stateMutability": "view",
      "type": "function"
    },
    {
      "inputs": [
        {
          "internalType": "address",
          "name": "spender",
          "type": "address"
        },
        {
          "internalType": "uint256",
          "name": "amount",
          "type": "uint256"
        }
      ],
      "name": "approve",
      "outputs": [
        {
          "internalType": "bool",
          "name": "",
          "type": "bool"
        }
      ],
      "stateMutability": "nonpayable",
      "type": "function"
    },
    {
      "inputs": [
        {
          "internalType": "address",
          "name": "spender",
          "type": "address"
        },
        {
          "internalType": "uint256",
          "name": "value",
          "type": "uint256"
        }
      ],
      "name": "approveAndCall",
      "outputs": [
        {
          "internalType": "bool",
          "name": "",
          "type": "bool"
        }
      ],
      "stateMutability": "nonpayable",
      "type": "function"
    },
    {
      "inputs": [
        {
          "internalType": "address",
          "name": "spender",
          "type": "address"
        },
        {
          "internalType": "uint256",
          "name": "value",
          "type": "uint256"
        },
        {
          "internalType": "bytes",
          "name": "data",
          "type": "bytes"
        }
      ],
      "name": "approveAndCall",
      "outputs": [
        {
          "internalType": "bool",
          "name": "",
          "type": "bool"
        }
      ],
      "stateMutability": "nonpayable",
      "type": "function"
    },
    {
      "inputs": [
        {
          "internalType": "address",
          "name": "account",
          "type": "address"
        }
      ],
      "name": "balanceOf",
      "outputs": [
        {
          "internalType": "uint256",
          "name": "",
          "type": "uint256"
        }
      ],
      "stateMutability": "view",
      "type": "function"
    },
    {
      "inputs": [
        {
          "internalType": "uint256",
          "name": "amount",
          "type": "uint256"
        }
      ],
      "name": "burn",
      "outputs": [],
      "stateMutability": "nonpayable",
      "type": "function"
    },
    {
      "inputs": [
        {
          "internalType": "address",
          "name": "account",
          "type": "address"
        },
        {
          "internalType": "uint256",
          "name": "amount",
          "type": "uint256"
        }
      ],
      "name": "burnFrom",
      "outputs": [],
      "stateMutability": "nonpayable",
      "type": "function"
    },
    {
      "inputs": [],
      "name": "cap",
      "outputs": [
        {
          "internalType": "uint256",
          "name": "",
          "type": "uint256"
        }
      ],
      "stateMutability": "view",
      "type": "function"
    },
    {
      "inputs": [],
      "name": "decimals",
      "outputs": [
        {
          "internalType": "uint8",
          "name": "",
          "type": "uint8"
        }
      ],
      "stateMutability": "view",
      "type": "function"
    },
    {
      "inputs": [
        {
          "internalType": "address",
          "name": "spender",
          "type": "address"
        },
        {
          "internalType": "uint256",
          "name": "subtractedValue",
          "type": "uint256"
        }
      ],
      "name": "decreaseAllowance",
      "outputs": [
        {
          "internalType": "bool",
          "name": "",
          "type": "bool"
        }
      ],
      "stateMutability": "nonpayable",
      "type": "function"
    },
    {
      "inputs": [
        {
          "internalType": "address",
          "name": "spender",
          "type": "address"
        },
        {
          "internalType": "uint256",
          "name": "addedValue",
          "type": "uint256"
        }
      ],
      "name": "increaseAllowance",
      "outputs": [
        {
          "internalType": "bool",
          "name": "",
          "type": "bool"
        }
      ],
      "stateMutability": "nonpayable",
      "type": "function"
    },
    {
      "inputs": [],
      "name": "name",
      "outputs": [
        {
          "internalType": "string",
          "name": "",
          "type": "string"
        }
      ],
      "stateMutability": "view",
      "type": "function"
    },
    {
      "inputs": [],
      "name": "owner",
      "outputs": [
        {
          "internalType": "address",
          "name": "",
          "type": "address"
        }
      ],
      "stateMutability": "view",
      "type": "function"
    },
    {
      "inputs": [
        {
          "internalType": "address",
          "name": "tokenAddress",
          "type": "address"
        },
        {
          "internalType": "uint256",
          "name": "tokenAmount",
          "type": "uint256"
        }
      ],
      "name": "recoverERC20",
      "outputs": [],
      "stateMutability": "nonpayable",
      "type": "function"
    },
    {
      "inputs": [],
      "name": "renounceOwnership",
      "outputs": [],
      "stateMutability": "nonpayable",
      "type": "function"
    },
    {
      "inputs": [
        {
          "internalType": "bytes4",
          "name": "interfaceId",
          "type": "bytes4"
        }
      ],
      "name": "supportsInterface",
      "outputs": [
        {
          "internalType": "bool",
          "name": "",
          "type": "bool"
        }
      ],
      "stateMutability": "view",
      "type": "function"
    },
    {
      "inputs": [],
      "name": "symbol",
      "outputs": [
        {
          "internalType": "string",
          "name": "",
          "type": "string"
        }
      ],
      "stateMutability": "view",
      "type": "function"
    },
    {
      "inputs": [],
      "name": "totalSupply",
      "outputs": [
        {
          "internalType": "uint256",
          "name": "",
          "type": "uint256"
        }
      ],
      "stateMutability": "view",
      "type": "function"
    },
    {
      "inputs": [
        {
          "internalType": "address",
          "name": "recipient",
          "type": "address"
        },
        {
          "internalType": "uint256",
          "name": "amount",
          "type": "uint256"
        }
      ],
      "name": "transfer",
      "outputs": [
        {
          "internalType": "bool",
          "name": "",
          "type": "bool"
        }
      ],
      "stateMutability": "nonpayable",
      "type": "function"
    },
    {
      "inputs": [
        {
          "internalType": "address",
          "name": "to",
          "type": "address"
        },
        {
          "internalType": "uint256",
          "name": "value",
          "type": "uint256"
        }
      ],
      "name": "transferAndCall",
      "outputs": [
        {
          "internalType": "bool",
          "name": "",
          "type": "bool"
        }
      ],
      "stateMutability": "nonpayable",
      "type": "function"
    },
    {
      "inputs": [
        {
          "internalType": "address",
          "name": "to",
          "type": "address"
        },
        {
          "internalType": "uint256",
          "name": "value",
          "type": "uint256"
        },
        {
          "internalType": "bytes",
          "name": "data",
          "type": "bytes"
        }
      ],
      "name": "transferAndCall",
      "outputs": [
        {
          "internalType": "bool",
          "name": "",
          "type": "bool"
        }
      ],
      "stateMutability": "nonpayable",
      "type": "function"
    },
    {
      "inputs": [
        {
          "internalType": "address",
          "name": "sender",
          "type": "address"
        },
        {
          "internalType": "address",
          "name": "recipient",
          "type": "address"
        },
        {
          "internalType": "uint256",
          "name": "amount",
          "type": "uint256"
        }
      ],
      "name": "transferFrom",
      "outputs": [
        {
          "internalType": "bool",
          "name": "",
          "type": "bool"
        }
      ],
      "stateMutability": "nonpayable",
      "type": "function"
    },
    {
      "inputs": [
        {
          "internalType": "address",
          "name": "from",
          "type": "address"
        },
        {
          "internalType": "address",
          "name": "to",
          "type": "address"
        },
        {
          "internalType": "uint256",
          "name": "value",
          "type": "uint256"
        },
        {
          "internalType": "bytes",
          "name": "data",
          "type": "bytes"
        }
      ],
      "name": "transferFromAndCall",
      "outputs": [
        {
          "internalType": "bool",
          "name": "",
          "type": "bool"
        }
      ],
      "stateMutability": "nonpayable",
      "type": "function"
    },
    {
      "inputs": [
        {
          "internalType": "address",
          "name": "from",
          "type": "address"
        },
        {
          "internalType": "address",
          "name": "to",
          "type": "address"
        },
        {
          "internalType": "uint256",
          "name": "value",
          "type": "uint256"
        }
      ],
      "name": "transferFromAndCall",
      "outputs": [
        {
          "internalType": "bool",
          "name": "",
          "type": "bool"
        }
      ],
      "stateMutability": "nonpayable",
      "type": "function"
    },
    {
      "inputs": [
        {
          "internalType": "address",
          "name": "newOwner",
          "type": "address"
        }
      ],
      "name": "transferOwnership",
      "outputs": [],
      "stateMutability": "nonpayable",
      "type": "function"
    },
    {
      "inputs": [],
      "name": "mintingFinished",
      "outputs": [
        {
          "internalType": "bool",
          "name": "",
          "type": "bool"
        }
      ],
      "stateMutability": "view",
      "type": "function"
    },
    {
      "inputs": [
        {
          "internalType": "address",
          "name": "to",
          "type": "address"
        },
        {
          "internalType": "uint256",
          "name": "value",
          "type": "uint256"
        }
      ],
      "name": "mint",
      "outputs": [],
      "stateMutability": "nonpayable",
      "type": "function"
    },
    {
      "inputs": [],
      "name": "finishMinting",
      "outputs": [],
      "stateMutability": "nonpayable",
      "type": "function"
    }
  ],
  "bytecode": "0x608060408190526008805460ff60a01b191690556200233238819003908190833981810160405260c08110156200003557600080fd5b81019080805160405193929190846401000000008211156200005657600080fd5b9083019060208201858111156200006c57600080fd5b82516401000000008111828201881017156200008757600080fd5b82525081516020918201929091019080838360005b83811015620000b65781810151838201526020016200009c565b50505050905090810190601f168015620000e45780820380516001836020036101000a031916815260200191505b50604052602001805160405193929190846401000000008211156200010857600080fd5b9083019060208201858111156200011e57600080fd5b82516401000000008111828201881017156200013957600080fd5b82525081516020918201929091019080838360005b83811015620001685781810151838201526020016200014e565b50505050905090810190601f168015620001965780820380516001836020036101000a031916815260200191505b506040818152602083810151848301516060860151608090960151858501909452600d85526c0506f77657266756c455243323609c1b838601528951919750955091928392909189918991889184918491620001f99160039190850190620006d6565b5080516200020f906004906020840190620006d6565b50506005805460ff19166012179055508062000272576040805162461bcd60e51b815260206004820152601560248201527f45524332304361707065643a2063617020697320300000000000000000000000604482015290519081900360640190fd5b600655620002876301ffc9a760e01b62000402565b62000299634bbee2df60e01b62000402565b620002ab637dcf646760e11b62000402565b5060009050620002ba62000487565b600880546001600160a01b0319166001600160a01b038316908117909155604051919250906000907f8be0079c531659141344cd1fd0a4f28419497f9722a3daafe3b4186f6b6457e0908290a350816001600160a01b0316632b66d72e34836040518363ffffffff1660e01b81526004018080602001828103825283818151815260200191508051906020019080838360005b83811015620003675781810151838201526020016200034d565b50505050905090810190601f168015620003955780820380516001836020036101000a031916815260200191505b50925050506000604051808303818588803b158015620003b457600080fd5b505af1158015620003c9573d6000803e3d6000fd5b50505050505050620003e1846200048b60201b60201c565b620003f6620003ef62000487565b83620004a1565b50505050505062000772565b6001600160e01b0319808216141562000462576040805162461bcd60e51b815260206004820152601c60248201527f4552433136353a20696e76616c696420696e7465726661636520696400000000604482015290519081900360640190fd5b6001600160e01b0319166000908152600760205260409020805460ff19166001179055565b3390565b6005805460ff191660ff92909216919091179055565b6001600160a01b038216620004fd576040805162461bcd60e51b815260206004820152601f60248201527f45524332303a206d696e7420746f20746865207a65726f206164647265737300604482015290519081900360640190fd5b6200050b60008383620005b0565b6200052781600254620005cd60201b620010b81790919060201c565b6002556001600160a01b038216600090815260208181526040909120546200055a918390620010b8620005cd821b17901c565b6001600160a01b0383166000818152602081815260408083209490945583518581529351929391927fddf252ad1be2c89b69c2b068fc378daa952ba7f163c4a11628f55a4df523b3ef9281900390910190a35050565b620005c88383836200062f60201b620011121760201c565b505050565b60008282018381101562000628576040805162461bcd60e51b815260206004820152601b60248201527f536166654d6174683a206164646974696f6e206f766572666c6f770000000000604482015290519081900360640190fd5b9392505050565b62000647838383620005c860201b62000c0d1760201c565b6001600160a01b038316620005c8576006546200067c8262000668620006d0565b620005cd60201b620010b81790919060201c565b1115620005c8576040805162461bcd60e51b815260206004820152601960248201527f45524332304361707065643a2063617020657863656564656400000000000000604482015290519081900360640190fd5b60025490565b828054600181600116156101000203166002900490600052602060002090601f016020900481019282601f106200071957805160ff191683800117855562000749565b8280016001018555821562000749579182015b82811115620007495782518255916020019190600101906200072c565b50620007579291506200075b565b5090565b5b808211156200075757600081556001016200075c565b611bb080620007826000396000f3fe608060405234801561001057600080fd5b50600436106101c45760003560e01c806370a08231116100f9578063a457c2d711610097578063cae9ca5111610071578063cae9ca511461068d578063d8fbe99414610748578063dd62ed3e1461077e578063f2fde38b146107ac576101c4565b8063a457c2d71461056f578063a9059cbb1461059b578063c1d34b89146105c7576101c4565b80637d64bcb4116100d35780637d64bcb41461050f5780638980f11f146105175780638da5cb5b1461054357806395d89b4114610567576101c4565b806370a08231146104b5578063715018a6146104db57806379cc6790146104e3576101c4565b8063313ce56711610166578063395093511161014057806339509351146103835780634000aea0146103af57806340c10f191461046a57806342966c6814610498576101c4565b8063313ce567146103315780633177029f1461034f578063355274ea1461037b576101c4565b8063095ea7b3116101a2578063095ea7b3146102895780631296ee62146102b557806318160ddd146102e157806323b872dd146102fb576101c4565b806301ffc9a7146101c957806305d2035b1461020457806306fdde031461020c575b600080fd5b6101f0600480360360208110156101df57600080fd5b50356001600160e01b0319166107d2565b604080519115158252519081900360200190f35b6101f06107f1565b610214610801565b6040805160208082528351818301528351919283929083019185019080838360005b8381101561024e578181015183820152602001610236565b50505050905090810190601f16801561027b5780820380516001836020036101000a031916815260200191505b509250505060405180910390f35b6101f06004803603604081101561029f57600080fd5b506001600160a01b038135169060200135610897565b6101f0600480360360408110156102cb57600080fd5b506001600160a01b0381351690602001356108b4565b6102e96108d7565b60408051918252519081900360200190f35b6101f06004803603606081101561031157600080fd5b506001600160a01b038135811691602081013590911690604001356108dd565b610339610964565b6040805160ff9092168252519081900360200190f35b6101f06004803603604081101561036557600080fd5b506001600160a01b03813516906020013561096d565b6102e9610989565b6101f06004803603604081101561039957600080fd5b506001600160a01b03813516906020013561098f565b6101f0600480360360608110156103c557600080fd5b6001600160a01b03823516916020810135918101906060810160408201356401000000008111156103f557600080fd5b82018360208201111561040757600080fd5b8035906020019184600183028401116401000000008311171561042957600080fd5b91908080601f0160208091040260200160405190810160405280939291908181526020018383808284376000920191909152509295506109dd945050505050565b6104966004803603604081101561048057600080fd5b506001600160a01b038135169060200135610a38565b005b610496600480360360208110156104ae57600080fd5b5035610ae7565b6102e9600480360360208110156104cb57600080fd5b50356001600160a01b0316610afb565b610496610b16565b610496600480360360408110156104f957600080fd5b506001600160a01b038135169060200135610bb8565b610496610c12565b6104966004803603604081101561052d57600080fd5b506001600160a01b038135169060200135610cf1565b61054b610dd7565b604080516001600160a01b039092168252519081900360200190f35b610214610de6565b6101f06004803603604081101561058557600080fd5b506001600160a01b038135169060200135610e47565b6101f0600480360360408110156105b157600080fd5b506001600160a01b038135169060200135610eaf565b6101f0600480360360808110156105dd57600080fd5b6001600160a01b0382358116926020810135909116916040820135919081019060808101606082013564010000000081111561061857600080fd5b82018360208201111561062a57600080fd5b8035906020019184600183028401116401000000008311171561064c57600080fd5b91908080601f016020809104026020016040519081016040528093929190818152602001838380828437600092019190915250929550610ec3945050505050565b6101f0600480360360608110156106a357600080fd5b6001600160a01b03823516916020810135918101906060810160408201356401000000008111156106d357600080fd5b8201836020820111156106e557600080fd5b8035906020019184600183028401116401000000008311171561070757600080fd5b91908080601f016020809104026020016040519081016040528093929190818152602001838380828437600092019190915250929550610f24945050505050565b6101f06004803603606081101561075e57600080fd5b506001600160a01b03813581169160208101359091169060400135610f77565b6102e96004803603604081101561079457600080fd5b506001600160a01b0381358116916020013516610f94565b610496600480360360208110156107c257600080fd5b50356001600160a01b0316610fbf565b6001600160e01b03191660009081526007602052604090205460ff1690565b600854600160a01b900460ff1690565b60038054604080516020601f600260001961010060018816150201909516949094049384018190048102820181019092528281526060939092909183018282801561088d5780601f106108625761010080835404028352916020019161088d565b820191906000526020600020905b81548152906001019060200180831161087057829003601f168201915b5050505050905090565b60006108ab6108a4611193565b8484611197565b50600192915050565b60006108d08383604051806020016040528060008152506109dd565b9392505050565b60025490565b60006108ea848484611283565b61095a846108f6611193565b61095585604051806060016040528060288152602001611a80602891396001600160a01b038a16600090815260016020526040812090610934611193565b6001600160a01b0316815260208101919091526040016000205491906113de565b611197565b5060019392505050565b60055460ff1690565b60006108d0838360405180602001604052806000815250610f24565b60065490565b60006108ab61099c611193565b8461095585600160006109ad611193565b6001600160a01b03908116825260208083019390935260409182016000908120918c1681529252902054906110b8565b60006109e98484610eaf565b506109fd6109f5611193565b858585611475565b61095a5760405162461bcd60e51b8152600401808060200182810382526026815260200180611a5a6026913960400191505060405180910390fd5b600854600160a01b900460ff1615610a815760405162461bcd60e51b8152600401808060200182810382526022815260200180611a386022913960400191505060405180910390fd5b610a89611193565b6008546001600160a01b03908116911614610ad9576040805162461bcd60e51b81526020600482018190526024820152600080516020611aa8833981519152604482015290519081900360640190fd5b610ae382826115ba565b5050565b610af8610af2611193565b826116aa565b50565b6001600160a01b031660009081526020819052604090205490565b610b1e611193565b6008546001600160a01b03908116911614610b6e576040805162461bcd60e51b81526020600482018190526024820152600080516020611aa8833981519152604482015290519081900360640190fd5b6008546040516000916001600160a01b0316907f8be0079c531659141344cd1fd0a4f28419497f9722a3daafe3b4186f6b6457e0908390a3600880546001600160a01b0319169055565b6000610bef82604051806060016040528060248152602001611ac860249139610be886610be3611193565b610f94565b91906113de565b9050610c0383610bfd611193565b83611197565b610c0d83836116aa565b505050565b600854600160a01b900460ff1615610c5b5760405162461bcd60e51b8152600401808060200182810382526022815260200180611a386022913960400191505060405180910390fd5b610c63611193565b6008546001600160a01b03908116911614610cb3576040805162461bcd60e51b81526020600482018190526024820152600080516020611aa8833981519152604482015290519081900360640190fd5b6008805460ff60a01b1916600160a01b1790556040517fae5184fba832cb2b1f702aca6117b8d265eaf03ad33eb133f19dde0f5920fa0890600090a1565b610cf9611193565b6008546001600160a01b03908116911614610d49576040805162461bcd60e51b81526020600482018190526024820152600080516020611aa8833981519152604482015290519081900360640190fd5b816001600160a01b031663a9059cbb610d60610dd7565b836040518363ffffffff1660e01b815260040180836001600160a01b0316815260200182815260200192505050602060405180830381600087803b158015610da757600080fd5b505af1158015610dbb573d6000803e3d6000fd5b505050506040513d6020811015610dd157600080fd5b50505050565b6008546001600160a01b031690565b60048054604080516020601f600260001961010060018816150201909516949094049384018190048102820181019092528281526060939092909183018282801561088d5780601f106108625761010080835404028352916020019161088d565b60006108ab610e54611193565b8461095585604051806060016040528060258152602001611b566025913960016000610e7e611193565b6001600160a01b03908116825260208083019390935260409182016000908120918d168152925290205491906113de565b60006108ab610ebc611193565b8484611283565b6000610ed08585856108dd565b50610edd85858585611475565b610f185760405162461bcd60e51b8152600401808060200182810382526026815260200180611a5a6026913960400191505060405180910390fd5b5060015b949350505050565b6000610f308484610897565b50610f3c8484846117a6565b61095a5760405162461bcd60e51b81526004018080602001828103825260258152602001806119ed6025913960400191505060405180910390fd5b6000610f1c84848460405180602001604052806000815250610ec3565b6001600160a01b03918216600090815260016020908152604080832093909416825291909152205490565b610fc7611193565b6008546001600160a01b03908116911614611017576040805162461bcd60e51b81526020600482018190526024820152600080516020611aa8833981519152604482015290519081900360640190fd5b6001600160a01b03811661105c5760405162461bcd60e51b81526004018080602001828103825260268152602001806119a56026913960400191505060405180910390fd5b6008546040516001600160a01b038084169216907f8be0079c531659141344cd1fd0a4f28419497f9722a3daafe3b4186f6b6457e090600090a3600880546001600160a01b0319166001600160a01b0392909216919091179055565b6000828201838110156108d0576040805162461bcd60e51b815260206004820152601b60248201527f536166654d6174683a206164646974696f6e206f766572666c6f770000000000604482015290519081900360640190fd5b61111d838383610c0d565b6001600160a01b038316610c0d576006546111408261113a6108d7565b906110b8565b1115610c0d576040805162461bcd60e51b815260206004820152601960248201527f45524332304361707065643a2063617020657863656564656400000000000000604482015290519081900360640190fd5b3390565b6001600160a01b0383166111dc5760405162461bcd60e51b8152600401808060200182810382526024815260200180611b326024913960400191505060405180910390fd5b6001600160a01b0382166112215760405162461bcd60e51b81526004018080602001828103825260228152602001806119cb6022913960400191505060405180910390fd5b6001600160a01b03808416600081815260016020908152604080832094871680845294825291829020859055815185815291517f8c5be1e5ebec7d5bd14f71427d1e84f3dd0314c0f7b2291e5b200ac8c7c3b9259281900390910190a3505050565b6001600160a01b0383166112c85760405162461bcd60e51b8152600401808060200182810382526025815260200180611b0d6025913960400191505060405180910390fd5b6001600160a01b03821661130d5760405162461bcd60e51b81526004018080602001828103825260238152602001806119606023913960400191505060405180910390fd5b6113188383836118d9565b61135581604051806060016040528060268152602001611a12602691396001600160a01b03861660009081526020819052604090205491906113de565b6001600160a01b03808516600090815260208190526040808220939093559084168152205461138490826110b8565b6001600160a01b038084166000818152602081815260409182902094909455805185815290519193928716927fddf252ad1be2c89b69c2b068fc378daa952ba7f163c4a11628f55a4df523b3ef92918290030190a3505050565b6000818484111561146d5760405162461bcd60e51b81526004018080602001828103825283818151815260200191508051906020019080838360005b8381101561143257818101518382015260200161141a565b50505050905090810190601f16801561145f5780820380516001836020036101000a031916815260200191505b509250505060405180910390fd5b505050900390565b6000611489846001600160a01b03166118e4565b61149557506000610f1c565b6000846001600160a01b03166388a7ca5c6114ae611193565b8887876040518563ffffffff1660e01b815260040180856001600160a01b03168152602001846001600160a01b0316815260200183815260200180602001828103825283818151815260200191508051906020019080838360005b83811015611521578181015183820152602001611509565b50505050905090810190601f16801561154e5780820380516001836020036101000a031916815260200191505b5095505050505050602060405180830381600087803b15801561157057600080fd5b505af1158015611584573d6000803e3d6000fd5b505050506040513d602081101561159a57600080fd5b50516001600160e01b031916632229f29760e21b14915050949350505050565b6001600160a01b038216611615576040805162461bcd60e51b815260206004820152601f60248201527f45524332303a206d696e7420746f20746865207a65726f206164647265737300604482015290519081900360640190fd5b611621600083836118d9565b60025461162e90826110b8565b6002556001600160a01b03821660009081526020819052604090205461165490826110b8565b6001600160a01b0383166000818152602081815260408083209490945583518581529351929391927fddf252ad1be2c89b69c2b068fc378daa952ba7f163c4a11628f55a4df523b3ef9281900390910190a35050565b6001600160a01b0382166116ef5760405162461bcd60e51b8152600401808060200182810382526021815260200180611aec6021913960400191505060405180910390fd5b6116fb826000836118d9565b61173881604051806060016040528060228152602001611983602291396001600160a01b03851660009081526020819052604090205491906113de565b6001600160a01b03831660009081526020819052604090205560025461175e908261191d565b6002556040805182815290516000916001600160a01b038516917fddf252ad1be2c89b69c2b068fc378daa952ba7f163c4a11628f55a4df523b3ef9181900360200190a35050565b60006117ba846001600160a01b03166118e4565b6117c6575060006108d0565b6000846001600160a01b0316637b04a2d06117df611193565b86866040518463ffffffff1660e01b815260040180846001600160a01b0316815260200183815260200180602001828103825283818151815260200191508051906020019080838360005b8381101561184257818101518382015260200161182a565b50505050905090810190601f16801561186f5780820380516001836020036101000a031916815260200191505b50945050505050602060405180830381600087803b15801561189057600080fd5b505af11580156118a4573d6000803e3d6000fd5b505050506040513d60208110156118ba57600080fd5b50516001600160e01b0319166307b04a2d60e41b149150509392505050565b610c0d838383611112565b6000813f7fc5d2460186f7233c927e7db2dcc703c0e500b653ca82273b7bfad8045d85a470818114801590610f1c575050151592915050565b60006108d083836040518060400160405280601e81526020017f536166654d6174683a207375627472616374696f6e206f766572666c6f7700008152506113de56fe45524332303a207472616e7366657220746f20746865207a65726f206164647265737345524332303a206275726e20616d6f756e7420657863656564732062616c616e63654f776e61626c653a206e6577206f776e657220697320746865207a65726f206164647265737345524332303a20617070726f766520746f20746865207a65726f2061646472657373455243313336333a205f636865636b416e6443616c6c417070726f7665207265766572747345524332303a207472616e7366657220616d6f756e7420657863656564732062616c616e6365506f77657266756c45524332303a206d696e74696e672069732066696e6973686564455243313336333a205f636865636b416e6443616c6c5472616e73666572207265766572747345524332303a207472616e7366657220616d6f756e74206578636565647320616c6c6f77616e63654f776e61626c653a2063616c6c6572206973206e6f7420746865206f776e657245524332303a206275726e20616d6f756e74206578636565647320616c6c6f77616e636545524332303a206275726e2066726f6d20746865207a65726f206164647265737345524332303a207472616e736665722066726f6d20746865207a65726f206164647265737345524332303a20617070726f76652066726f6d20746865207a65726f206164647265737345524332303a2064656372656173656420616c6c6f77616e63652062656c6f77207a65726fa264697066735822122014d3a91df13f752b5af16dbfc744fe5761492e44f72f04f6f6137d051059c58e64736f6c63430007030033",
  "immutableReferences": {},
  "source": "// SPDX-License-Identifier: MIT\n\npragma solidity ^0.7.0;\n\nimport \"@openzeppelin/contracts/token/ERC20/ERC20Burnable.sol\";\nimport \"@openzeppelin/contracts/token/ERC20/ERC20Capped.sol\";\n\nimport \"erc-payable-token/contracts/token/ERC1363/ERC1363.sol\";\n\nimport \"eth-token-recover/contracts/TokenRecover.sol\";\n\nimport \"../../service/ServicePayer.sol\";\n\n/**\n * @title PowerfulERC20\n * @author ERC20 Generator (https://vittominacori.github.io/erc20-generator)\n * @dev Implementation of the PowerfulERC20\n */\ncontract PowerfulERC20 is ERC20Capped, ERC20Burnable, ERC1363, TokenRecover, ServicePayer {\n\n    // indicates if minting is finished\n    bool private _mintingFinished = false;\n\n    /**\n     * @dev Emitted during finish minting\n     */\n    event MintFinished();\n\n    /**\n     * @dev Tokens can be minted only before minting finished.\n     */\n    modifier canMint() {\n        require(!_mintingFinished, \"PowerfulERC20: minting is finished\");\n        _;\n    }\n\n    constructor (\n        string memory name,\n        string memory symbol,\n        uint8 decimals,\n        uint256 cap,\n        uint256 initialBalance,\n        address payable feeReceiver\n    ) ERC1363(name, symbol) ERC20Capped(cap) ServicePayer(feeReceiver, \"PowerfulERC20\") payable {\n        _setupDecimals(decimals);\n\n        _mint(_msgSender(), initialBalance);\n    }\n\n    /**\n     * @return if minting is finished or not.\n     */\n    function mintingFinished() public view returns (bool) {\n        return _mintingFinished;\n    }\n\n    /**\n     * @dev Function to mint tokens.\n     * @param to The address that will receive the minted tokens\n     * @param value The amount of tokens to mint\n     */\n    function mint(address to, uint256 value) public canMint onlyOwner {\n        _mint(to, value);\n    }\n\n    /**\n     * @dev Function to stop minting new tokens.\n     */\n    function finishMinting() public canMint onlyOwner {\n        _mintingFinished = true;\n\n        emit MintFinished();\n    }\n\n    /**\n     * @dev See {ERC20-_beforeTokenTransfer}.\n     */\n    function _beforeTokenTransfer(address from, address to, uint256 amount) internal virtual override(ERC20, ERC20Capped) {\n        super._beforeTokenTransfer(from, to, amount);\n    }\n}\n",
  "sourcePath": "/Users/vittominacori/Projects/vittominacori.github.io/erc20-generator/erc20-generator-smartcontracts/contracts/token/ERC20/PowerfulERC20.sol",
  "compiler": {
    "name": "solc",
    "version": "0.7.3+commit.9bfce1f6.Emscripten.clang"
  },
  "schemaVersion": "3.3.1",
  "updatedAt": "2020-10-17T12:17:50.943Z",
  "devdoc": {
    "author": "ERC20 Generator (https://vittominacori.github.io/erc20-generator)",
    "details": "Implementation of the PowerfulERC20",
    "events": {
      "MintFinished()": {
        "details": "Emitted during finish minting"
      }
    },
    "kind": "dev",
    "methods": {
      "allowance(address,address)": {
        "details": "See {IERC20-allowance}."
      },
      "approve(address,uint256)": {
        "details": "See {IERC20-approve}. Requirements: - `spender` cannot be the zero address."
      },
      "approveAndCall(address,uint256)": {
        "details": "Approve spender to transfer tokens and then execute a callback on recipient.",
        "params": {
          "spender": "The address allowed to transfer to",
          "value": "The amount allowed to be transferred"
        },
        "returns": {
          "_0": "A boolean that indicates if the operation was successful."
        }
      },
      "approveAndCall(address,uint256,bytes)": {
        "details": "Approve spender to transfer tokens and then execute a callback on recipient.",
        "params": {
          "data": "Additional data with no specified format.",
          "spender": "The address allowed to transfer to.",
          "value": "The amount allowed to be transferred."
        },
        "returns": {
          "_0": "A boolean that indicates if the operation was successful."
        }
      },
      "balanceOf(address)": {
        "details": "See {IERC20-balanceOf}."
      },
      "burn(uint256)": {
        "details": "Destroys `amount` tokens from the caller. See {ERC20-_burn}."
      },
      "burnFrom(address,uint256)": {
        "details": "Destroys `amount` tokens from `account`, deducting from the caller's allowance. See {ERC20-_burn} and {ERC20-allowance}. Requirements: - the caller must have allowance for ``accounts``'s tokens of at least `amount`."
      },
      "cap()": {
        "details": "Returns the cap on the token's total supply."
      },
      "decimals()": {
        "details": "Returns the number of decimals used to get its user representation. For example, if `decimals` equals `2`, a balance of `505` tokens should be displayed to a user as `5,05` (`505 / 10 ** 2`). Tokens usually opt for a value of 18, imitating the relationship between Ether and Wei. This is the value {ERC20} uses, unless {_setupDecimals} is called. NOTE: This information is only used for _display_ purposes: it in no way affects any of the arithmetic of the contract, including {IERC20-balanceOf} and {IERC20-transfer}."
      },
      "decreaseAllowance(address,uint256)": {
        "details": "Atomically decreases the allowance granted to `spender` by the caller. This is an alternative to {approve} that can be used as a mitigation for problems described in {IERC20-approve}. Emits an {Approval} event indicating the updated allowance. Requirements: - `spender` cannot be the zero address. - `spender` must have allowance for the caller of at least `subtractedValue`."
      },
      "finishMinting()": {
        "details": "Function to stop minting new tokens."
      },
      "increaseAllowance(address,uint256)": {
        "details": "Atomically increases the allowance granted to `spender` by the caller. This is an alternative to {approve} that can be used as a mitigation for problems described in {IERC20-approve}. Emits an {Approval} event indicating the updated allowance. Requirements: - `spender` cannot be the zero address."
      },
      "mint(address,uint256)": {
        "details": "Function to mint tokens.",
        "params": {
          "to": "The address that will receive the minted tokens",
          "value": "The amount of tokens to mint"
        }
      },
      "mintingFinished()": {
        "returns": {
          "_0": "if minting is finished or not."
        }
      },
      "name()": {
        "details": "Returns the name of the token."
      },
      "owner()": {
        "details": "Returns the address of the current owner."
      },
      "recoverERC20(address,uint256)": {
        "details": "Remember that only owner can call so be careful when use on contracts generated from other contracts.",
        "params": {
          "tokenAddress": "The token contract address",
          "tokenAmount": "Number of tokens to be sent"
        }
      },
      "renounceOwnership()": {
        "details": "Leaves the contract without owner. It will not be possible to call `onlyOwner` functions anymore. Can only be called by the current owner. NOTE: Renouncing ownership will leave the contract without an owner, thereby removing any functionality that is only available to the owner."
      },
      "supportsInterface(bytes4)": {
        "details": "See {IERC165-supportsInterface}. Time complexity O(1), guaranteed to always use less than 30 000 gas."
      },
      "symbol()": {
        "details": "Returns the symbol of the token, usually a shorter version of the name."
      },
      "totalSupply()": {
        "details": "See {IERC20-totalSupply}."
      },
      "transfer(address,uint256)": {
        "details": "See {IERC20-transfer}. Requirements: - `recipient` cannot be the zero address. - the caller must have a balance of at least `amount`."
      },
      "transferAndCall(address,uint256)": {
        "details": "Transfer tokens to a specified address and then execute a callback on recipient.",
        "params": {
          "to": "The address to transfer to.",
          "value": "The amount to be transferred."
        },
        "returns": {
          "_0": "A boolean that indicates if the operation was successful."
        }
      },
      "transferAndCall(address,uint256,bytes)": {
        "details": "Transfer tokens to a specified address and then execute a callback on recipient.",
        "params": {
          "data": "Additional data with no specified format",
          "to": "The address to transfer to",
          "value": "The amount to be transferred"
        },
        "returns": {
          "_0": "A boolean that indicates if the operation was successful."
        }
      },
      "transferFrom(address,address,uint256)": {
        "details": "See {IERC20-transferFrom}. Emits an {Approval} event indicating the updated allowance. This is not required by the EIP. See the note at the beginning of {ERC20}; Requirements: - `sender` and `recipient` cannot be the zero address. - `sender` must have a balance of at least `amount`. - the caller must have allowance for ``sender``'s tokens of at least `amount`."
      },
      "transferFromAndCall(address,address,uint256)": {
        "details": "Transfer tokens from one address to another and then execute a callback on recipient.",
        "params": {
          "from": "The address which you want to send tokens from",
          "to": "The address which you want to transfer to",
          "value": "The amount of tokens to be transferred"
        },
        "returns": {
          "_0": "A boolean that indicates if the operation was successful."
        }
      },
      "transferFromAndCall(address,address,uint256,bytes)": {
        "details": "Transfer tokens from one address to another and then execute a callback on recipient.",
        "params": {
          "data": "Additional data with no specified format",
          "from": "The address which you want to send tokens from",
          "to": "The address which you want to transfer to",
          "value": "The amount of tokens to be transferred"
        },
        "returns": {
          "_0": "A boolean that indicates if the operation was successful."
        }
      },
      "transferOwnership(address)": {
        "details": "Transfers ownership of the contract to a new account (`newOwner`). Can only be called by the current owner."
      }
    },
    "title": "PowerfulERC20",
    "version": 1
  },
  "userdoc": {
    "kind": "user",
    "methods": {},
    "version": 1
  }
}