{
  "contractName": "ServiceReceiver",
  "abi": [
    {
      "anonymous": false,
      "inputs": [
        {
          "indexed": true,
          "internalType": "address",
          "name": "previousOwner",
          "type": "address"
        },
        {
          "indexed": true,
          "internalType": "address",
          "name": "newOwner",
          "type": "address"
        }
      ],
      "name": "OwnershipTransferred",
      "type": "event"
    },
    {
      "inputs": [],
      "name": "owner",
      "outputs": [
        {
          "internalType": "address",
          "name": "",
          "type": "address"
        }
      ],
      "stateMutability": "view",
      "type": "function"
    },
    {
      "inputs": [
        {
          "internalType": "address",
          "name": "tokenAddress",
          "type": "address"
        },
        {
          "internalType": "uint256",
          "name": "tokenAmount",
          "type": "uint256"
        }
      ],
      "name": "recoverERC20",
      "outputs": [],
      "stateMutability": "nonpayable",
      "type": "function"
    },
    {
      "inputs": [],
      "name": "renounceOwnership",
      "outputs": [],
      "stateMutability": "nonpayable",
      "type": "function"
    },
    {
      "inputs": [
        {
          "internalType": "address",
          "name": "newOwner",
          "type": "address"
        }
      ],
      "name": "transferOwnership",
      "outputs": [],
      "stateMutability": "nonpayable",
      "type": "function"
    },
    {
      "inputs": [
        {
          "internalType": "string",
          "name": "serviceName",
          "type": "string"
        }
      ],
      "name": "pay",
      "outputs": [],
      "stateMutability": "payable",
      "type": "function"
    },
    {
      "inputs": [
        {
          "internalType": "string",
          "name": "serviceName",
          "type": "string"
        }
      ],
      "name": "getPrice",
      "outputs": [
        {
          "internalType": "uint256",
          "name": "",
          "type": "uint256"
        }
      ],
      "stateMutability": "view",
      "type": "function"
    },
    {
      "inputs": [
        {
          "internalType": "string",
          "name": "serviceName",
          "type": "string"
        },
        {
          "internalType": "uint256",
          "name": "amount",
          "type": "uint256"
        }
      ],
      "name": "setPrice",
      "outputs": [],
      "stateMutability": "nonpayable",
      "type": "function"
    },
    {
      "inputs": [
        {
          "internalType": "uint256",
          "name": "amount",
          "type": "uint256"
        }
      ],
      "name": "withdraw",
      "outputs": [],
      "stateMutability": "nonpayable",
      "type": "function"
    }
  ],
  "bytecode": "0x608060405234801561001057600080fd5b50600061001b61006a565b600080546001600160a01b0319166001600160a01b0383169081178255604051929350917f8be0079c531659141344cd1fd0a4f28419497f9722a3daafe3b4186f6b6457e0908290a35061006e565b3390565b6108cd8061007d6000396000f3fe60806040526004361061007b5760003560e01c8063715018a61161004e578063715018a6146102cc5780638980f11f146102e15780638da5cb5b1461031a578063f2fde38b1461034b5761007b565b806322e01192146100805780632b66d72e146101375780632e1a7d4d146101dd578063524f388914610207575b600080fd5b34801561008c57600080fd5b50610135600480360360408110156100a357600080fd5b8101906020810181356401000000008111156100be57600080fd5b8201836020820111156100d057600080fd5b803590602001918460018302840111640100000000831117156100f257600080fd5b91908080601f016020809104026020016040519081016040528093929190818152602001838380828437600092019190915250929550509135925061037e915050565b005b6101356004803603602081101561014d57600080fd5b81019060208101813564010000000081111561016857600080fd5b82018360208201111561017a57600080fd5b8035906020019184600183028401116401000000008311171561019c57600080fd5b91908080601f0160208091040260200160405190810160405280939291908181526020018383808284376000920191909152509295506103f9945050505050565b3480156101e957600080fd5b506101356004803603602081101561020057600080fd5b503561046b565b34801561021357600080fd5b506102ba6004803603602081101561022a57600080fd5b81019060208101813564010000000081111561024557600080fd5b82018360208201111561025757600080fd5b8035906020019184600183028401116401000000008311171561027957600080fd5b91908080601f016020809104026020016040519081016040528093929190818152602001838380828437600092019190915250929550610507945050505050565b60408051918252519081900360200190f35b3480156102d857600080fd5b5061013561052c565b3480156102ed57600080fd5b506101356004803603604081101561030457600080fd5b506001600160a01b0381351690602001356105ce565b34801561032657600080fd5b5061032f6106b4565b604080516001600160a01b039092168252519081900360200190f35b34801561035757600080fd5b506101356004803603602081101561036e57600080fd5b50356001600160a01b03166106c3565b6103866107bb565b6000546001600160a01b039081169116146103d6576040805162461bcd60e51b81526020600482018190526024820152600080516020610878833981519152604482015290519081900360640190fd5b80600160006103e4856107bf565b81526020810191909152604001600020555050565b60016000610406836107bf565b8152602001908152602001600020543414610468576040805162461bcd60e51b815260206004820181905260248201527f5365727669636552656365697665723a20696e636f7272656374207072696365604482015290519081900360640190fd5b50565b6104736107bb565b6000546001600160a01b039081169116146104c3576040805162461bcd60e51b81526020600482018190526024820152600080516020610878833981519152604482015290519081900360640190fd5b6104cb6106b4565b6001600160a01b03166108fc829081150290604051600060405180830381858888f19350505050158015610503573d6000803e3d6000fd5b5050565b600060016000610516846107bf565b8152602001908152602001600020549050919050565b6105346107bb565b6000546001600160a01b03908116911614610584576040805162461bcd60e51b81526020600482018190526024820152600080516020610878833981519152604482015290519081900360640190fd5b600080546040516001600160a01b03909116907f8be0079c531659141344cd1fd0a4f28419497f9722a3daafe3b4186f6b6457e0908390a3600080546001600160a01b0319169055565b6105d66107bb565b6000546001600160a01b03908116911614610626576040805162461bcd60e51b81526020600482018190526024820152600080516020610878833981519152604482015290519081900360640190fd5b816001600160a01b031663a9059cbb61063d6106b4565b836040518363ffffffff1660e01b815260040180836001600160a01b0316815260200182815260200192505050602060405180830381600087803b15801561068457600080fd5b505af1158015610698573d6000803e3d6000fd5b505050506040513d60208110156106ae57600080fd5b50505050565b6000546001600160a01b031690565b6106cb6107bb565b6000546001600160a01b0390811691161461071b576040805162461bcd60e51b81526020600482018190526024820152600080516020610878833981519152604482015290519081900360640190fd5b6001600160a01b0381166107605760405162461bcd60e51b81526004018080602001828103825260268152602001806108526026913960400191505060405180910390fd5b600080546040516001600160a01b03808516939216917f8be0079c531659141344cd1fd0a4f28419497f9722a3daafe3b4186f6b6457e091a3600080546001600160a01b0319166001600160a01b0392909216919091179055565b3390565b6000816040516020018080602001828103825283818151815260200191508051906020019080838360005b838110156108025781810151838201526020016107ea565b50505050905090810190601f16801561082f5780820380516001836020036101000a031916815260200191505b509250505060405160208183030381529060405280519060200120905091905056fe4f776e61626c653a206e6577206f776e657220697320746865207a65726f20616464726573734f776e61626c653a2063616c6c6572206973206e6f7420746865206f776e6572a26469706673582212205cf03a533a81cf2eb1ef2fd79ba8b2c8da1908238ac22df4391dfb765f06a63264736f6c63430007030033",
  "immutableReferences": {},
  "source": "// SPDX-License-Identifier: MIT\n\npragma solidity ^0.7.0;\n\nimport \"eth-token-recover/contracts/TokenRecover.sol\";\n\n/**\n * @title ServiceReceiver\n * @author ERC20 Generator (https://vittominacori.github.io/erc20-generator)\n * @dev Implementation of the ServiceReceiver\n */\ncontract ServiceReceiver is TokenRecover {\n\n    mapping (bytes32 => uint256) private _prices;\n\n    function pay(string memory serviceName) public payable {\n        require(msg.value == _prices[_toBytes32(serviceName)], \"ServiceReceiver: incorrect price\");\n    }\n\n    function getPrice(string memory serviceName) public view returns (uint256) {\n        return _prices[_toBytes32(serviceName)];\n    }\n\n    function setPrice(string memory serviceName, uint256 amount) public onlyOwner {\n        _prices[_toBytes32(serviceName)] = amount;\n    }\n\n    function withdraw(uint256 amount) public onlyOwner {\n        payable(owner()).transfer(amount);\n    }\n\n    function _toBytes32(string memory serviceName) private pure returns (bytes32) {\n        return keccak256(abi.encode(serviceName));\n    }\n}\n",
  "sourcePath": "/Users/vittominacori/Projects/vittominacori.github.io/erc20-generator/erc20-generator-smartcontracts/contracts/service/ServiceReceiver.sol",
  "compiler": {
    "name": "solc",
    "version": "0.7.3+commit.9bfce1f6.Emscripten.clang"
  },
  "schemaVersion": "3.3.1",
  "updatedAt": "2020-10-17T12:17:50.929Z",
  "devdoc": {
    "author": "ERC20 Generator (https://vittominacori.github.io/erc20-generator)",
    "details": "Implementation of the ServiceReceiver",
    "kind": "dev",
    "methods": {
      "owner()": {
        "details": "Returns the address of the current owner."
      },
      "recoverERC20(address,uint256)": {
        "details": "Remember that only owner can call so be careful when use on contracts generated from other contracts.",
        "params": {
          "tokenAddress": "The token contract address",
          "tokenAmount": "Number of tokens to be sent"
        }
      },
      "renounceOwnership()": {
        "details": "Leaves the contract without owner. It will not be possible to call `onlyOwner` functions anymore. Can only be called by the current owner. NOTE: Renouncing ownership will leave the contract without an owner, thereby removing any functionality that is only available to the owner."
      },
      "transferOwnership(address)": {
        "details": "Transfers ownership of the contract to a new account (`newOwner`). Can only be called by the current owner."
      }
    },
    "title": "ServiceReceiver",
    "version": 1
  },
  "userdoc": {
    "kind": "user",
    "methods": {},
    "version": 1
  }
}